{
  "_format": "hh-sol-artifact-1",
  "contractName": "PositionManager",
  "sourceName": "contracts/PositionManager.sol",
  "abi": [
    {
      "inputs": [
        {
          "internalType": "address",
          "name": "_factory",
          "type": "address"
        },
        {
          "internalType": "address",
          "name": "_WETH9",
          "type": "address"
        }
      ],
      "stateMutability": "nonpayable",
      "type": "constructor"
    },
    {
      "inputs": [],
      "name": "WETH9",
      "outputs": [
        {
          "internalType": "address",
          "name": "",
          "type": "address"
        }
      ],
      "stateMutability": "view",
      "type": "function"
    },
    {
      "inputs": [
        {
          "internalType": "address",
          "name": "token0",
          "type": "address"
        },
        {
          "internalType": "address",
          "name": "token1",
          "type": "address"
        },
        {
          "internalType": "uint24",
          "name": "fee",
          "type": "uint24"
        },
        {
          "internalType": "uint128",
          "name": "liquidity",
          "type": "uint128"
        },
        {
          "internalType": "int24",
          "name": "tickLower",
          "type": "int24"
        },
        {
          "internalType": "int24",
          "name": "tickDiff",
          "type": "int24"
        }
      ],
      "name": "burnAndCollect",
      "outputs": [],
      "stateMutability": "nonpayable",
      "type": "function"
    },
    {
      "inputs": [],
      "name": "factory",
      "outputs": [
        {
          "internalType": "address",
          "name": "",
          "type": "address"
        }
      ],
      "stateMutability": "view",
      "type": "function"
    },
    {
      "inputs": [
        {
          "internalType": "address",
          "name": "token0",
          "type": "address"
        },
        {
          "internalType": "address",
          "name": "token1",
          "type": "address"
        },
        {
          "internalType": "uint24",
          "name": "fee",
          "type": "uint24"
        },
        {
          "internalType": "uint128",
          "name": "liquidity",
          "type": "uint128"
        },
        {
          "internalType": "int24",
          "name": "tickLower",
          "type": "int24"
        },
        {
          "internalType": "int24",
          "name": "tickDiff",
          "type": "int24"
        }
      ],
      "name": "mint",
      "outputs": [],
      "stateMutability": "payable",
      "type": "function"
    },
    {
      "inputs": [],
      "name": "refundETH",
      "outputs": [],
      "stateMutability": "payable",
      "type": "function"
    },
    {
      "inputs": [
        {
          "internalType": "address",
          "name": "token",
          "type": "address"
        },
        {
          "internalType": "uint256",
          "name": "amountMinimum",
          "type": "uint256"
        },
        {
          "internalType": "address",
          "name": "recipient",
          "type": "address"
        }
      ],
      "name": "sweepToken",
      "outputs": [],
      "stateMutability": "payable",
      "type": "function"
    },
    {
      "inputs": [
        {
          "internalType": "uint256",
          "name": "amount0Owed",
          "type": "uint256"
        },
        {
          "internalType": "uint256",
          "name": "amount1Owed",
          "type": "uint256"
        },
        {
          "internalType": "bytes",
          "name": "data",
          "type": "bytes"
        }
      ],
      "name": "uniswapV3MintCallback",
      "outputs": [],
      "stateMutability": "nonpayable",
      "type": "function"
    },
    {
      "inputs": [
        {
          "internalType": "uint256",
          "name": "amountMinimum",
          "type": "uint256"
        },
        {
          "internalType": "address",
          "name": "recipient",
          "type": "address"
        }
      ],
      "name": "unwrapWETH9",
      "outputs": [],
      "stateMutability": "payable",
      "type": "function"
    },
    {
      "stateMutability": "payable",
      "type": "receive"
    }
  ],
  "bytecode": "0x60c060405234801561001057600080fd5b50604051620017bb380380620017bb8339810160408190526100319161006b565b6001600160601b0319606092831b8116608052911b1660a05261009d565b80516001600160a01b038116811461006657600080fd5b919050565b6000806040838503121561007d578182fd5b6100868361004f565b91506100946020840161004f565b90509250929050565b60805160601c60a05160601c6116cd620000ee60003980609c52806103b952806104e352806107c05280610c755280610cd55280610d56525080610218528061059152806107e452506116cd6000f3fe60806040526004361061007f5760003560e01c80634aa4a4fc1161004e5780634aa4a4fc1461017d578063c45a0155146101a8578063d3487997146101bd578063df2ab5bb146101dd5761012a565b806312210e8a1461012f5780632a60ffe31461013757806349404b7c1461014a5780634a67bade1461015d5761012a565b3661012a573373ffffffffffffffffffffffffffffffffffffffff7f0000000000000000000000000000000000000000000000000000000000000000161461012857604080517f08c379a000000000000000000000000000000000000000000000000000000000815260206004820152600960248201527f4e6f742057455448390000000000000000000000000000000000000000000000604482015290519081900360640190fd5b005b600080fd5b6101286101f0565b610128610145366004611267565b610202565b61012861015836600461141b565b6103b5565b34801561016957600080fd5b50610128610178366004611267565b61057b565b34801561018957600080fd5b506101926107be565b60405161019f91906114e4565b60405180910390f35b3480156101b457600080fd5b506101926107e2565b3480156101c957600080fd5b506101286101d8366004611469565b610806565b6101286101eb3660046112e2565b610855565b4715610200576102003347610972565b565b600061020f878787610ac0565b9050600061023d7f000000000000000000000000000000000000000000000000000000000000000083610b3d565b90506000838501905060008273ffffffffffffffffffffffffffffffffffffffff1663d0c93a7c6040518163ffffffff1660e01b815260040160206040518083038186803b15801561028e57600080fd5b505afa1580156102a2573d6000803e3d6000fd5b505050506040513d601f19601f820116820180604052508101906102c6919061131d565b90508273ffffffffffffffffffffffffffffffffffffffff16633c8a7d8d308389028486028b60405180604001604052808b81526020013373ffffffffffffffffffffffffffffffffffffffff168152506040516020016103279190611643565b6040516020818303038152906040526040518663ffffffff1660e01b8152600401610356959493929190611505565b6040805180830381600087803b15801561036f57600080fd5b505af1158015610383573d6000803e3d6000fd5b505050506040513d601f19601f820116820180604052508101906103a79190611446565b505050505050505050505050565b60007f000000000000000000000000000000000000000000000000000000000000000073ffffffffffffffffffffffffffffffffffffffff166370a08231306040518263ffffffff1660e01b8152600401808273ffffffffffffffffffffffffffffffffffffffff16815260200191505060206040518083038186803b15801561043e57600080fd5b505afa158015610452573d6000803e3d6000fd5b505050506040513d602081101561046857600080fd5b50519050828110156104db57604080517f08c379a000000000000000000000000000000000000000000000000000000000815260206004820152601260248201527f496e73756666696369656e742057455448390000000000000000000000000000604482015290519081900360640190fd5b8015610576577f000000000000000000000000000000000000000000000000000000000000000073ffffffffffffffffffffffffffffffffffffffff16632e1a7d4d826040518263ffffffff1660e01b815260040180828152602001915050600060405180830381600087803b15801561055457600080fd5b505af1158015610568573d6000803e3d6000fd5b505050506105768282610972565b505050565b6000610588878787610ac0565b905060006105b67f000000000000000000000000000000000000000000000000000000000000000083610b3d565b90506000838501905060008273ffffffffffffffffffffffffffffffffffffffff1663d0c93a7c6040518163ffffffff1660e01b815260040160206040518083038186803b15801561060757600080fd5b505afa15801561061b573d6000803e3d6000fd5b505050506040513d601f19601f8201168201806040525081019061063f919061131d565b6040517fa34123a700000000000000000000000000000000000000000000000000000000815290915073ffffffffffffffffffffffffffffffffffffffff84169063a34123a79061069c9089850290868602908c90600401611614565b6040805180830381600087803b1580156106b557600080fd5b505af11580156106c9573d6000803e3d6000fd5b505050506040513d601f19601f820116820180604052508101906106ed9190611446565b50506040517f4f1eb3d800000000000000000000000000000000000000000000000000000000815273ffffffffffffffffffffffffffffffffffffffff841690634f1eb3d89061076d9033908a860290878702907fffffffffffffffffffffffffffffffffffffffffffffffffffffffffffffffff9081906004016115c1565b6040805180830381600087803b15801561078657600080fd5b505af115801561079a573d6000803e3d6000fd5b505050506040513d601f19601f820116820180604052508101906103a791906113e2565b7f000000000000000000000000000000000000000000000000000000000000000081565b7f000000000000000000000000000000000000000000000000000000000000000081565b600061081482840184611340565b9050841561083057805151602082015161083091903388610c73565b831561084e5761084e81600001516020015182602001513387610c73565b5050505050565b60008373ffffffffffffffffffffffffffffffffffffffff166370a08231306040518263ffffffff1660e01b8152600401808273ffffffffffffffffffffffffffffffffffffffff16815260200191505060206040518083038186803b1580156108be57600080fd5b505afa1580156108d2573d6000803e3d6000fd5b505050506040513d60208110156108e857600080fd5b505190508281101561095b57604080517f08c379a000000000000000000000000000000000000000000000000000000000815260206004820152601260248201527f496e73756666696369656e7420746f6b656e0000000000000000000000000000604482015290519081900360640190fd5b801561096c5761096c848383610e51565b50505050565b6040805160008082526020820190925273ffffffffffffffffffffffffffffffffffffffff84169083906040518082805190602001908083835b602083106109e957805182527fffffffffffffffffffffffffffffffffffffffffffffffffffffffffffffffe090920191602091820191016109ac565b6001836020036101000a03801982511681845116808217855250505050505090500191505060006040518083038185875af1925050503d8060008114610a4b576040519150601f19603f3d011682016040523d82523d6000602084013e610a50565b606091505b505090508061057657604080517f08c379a000000000000000000000000000000000000000000000000000000000815260206004820152600360248201527f5354450000000000000000000000000000000000000000000000000000000000604482015290519081900360640190fd5b610ac861120b565b8273ffffffffffffffffffffffffffffffffffffffff168473ffffffffffffffffffffffffffffffffffffffff161115610b00579192915b506040805160608101825273ffffffffffffffffffffffffffffffffffffffff948516815292909316602083015262ffffff169181019190915290565b6000816020015173ffffffffffffffffffffffffffffffffffffffff16826000015173ffffffffffffffffffffffffffffffffffffffff1610610b7f57600080fd5b508051602080830151604093840151845173ffffffffffffffffffffffffffffffffffffffff94851681850152939091168385015262ffffff166060808401919091528351808403820181526080840185528051908301207fff0000000000000000000000000000000000000000000000000000000000000060a085015294901b7fffffffffffffffffffffffffffffffffffffffff0000000000000000000000001660a183015260b58201939093527fe34f199b19b2b4f47f68442619d555527d244f78a3297ea89325f843f87b8b5460d5808301919091528251808303909101815260f5909101909152805191012090565b7f000000000000000000000000000000000000000000000000000000000000000073ffffffffffffffffffffffffffffffffffffffff168473ffffffffffffffffffffffffffffffffffffffff16148015610cce5750804710155b15610e17577f000000000000000000000000000000000000000000000000000000000000000073ffffffffffffffffffffffffffffffffffffffff1663d0e30db0826040518263ffffffff1660e01b81526004016000604051808303818588803b158015610d3b57600080fd5b505af1158015610d4f573d6000803e3d6000fd5b50505050507f000000000000000000000000000000000000000000000000000000000000000073ffffffffffffffffffffffffffffffffffffffff1663a9059cbb83836040518363ffffffff1660e01b8152600401808373ffffffffffffffffffffffffffffffffffffffff16815260200182815260200192505050602060405180830381600087803b158015610de557600080fd5b505af1158015610df9573d6000803e3d6000fd5b505050506040513d6020811015610e0f57600080fd5b5061096c9050565b73ffffffffffffffffffffffffffffffffffffffff8316301415610e4557610e40848383610e51565b61096c565b61096c84848484611026565b6040805173ffffffffffffffffffffffffffffffffffffffff8481166024830152604480830185905283518084039091018152606490920183526020820180517bffffffffffffffffffffffffffffffffffffffffffffffffffffffff167fa9059cbb000000000000000000000000000000000000000000000000000000001781529251825160009485949389169392918291908083835b60208310610f2657805182527fffffffffffffffffffffffffffffffffffffffffffffffffffffffffffffffe09092019160209182019101610ee9565b6001836020036101000a0380198251168184511680821785525050505050509050019150506000604051808303816000865af19150503d8060008114610f88576040519150601f19603f3d011682016040523d82523d6000602084013e610f8d565b606091505b5091509150818015610fbb575080511580610fbb5750808060200190516020811015610fb857600080fd5b50515b61084e57604080517f08c379a000000000000000000000000000000000000000000000000000000000815260206004820152600260248201527f5354000000000000000000000000000000000000000000000000000000000000604482015290519081900360640190fd5b6040805173ffffffffffffffffffffffffffffffffffffffff85811660248301528481166044830152606480830185905283518084039091018152608490920183526020820180517bffffffffffffffffffffffffffffffffffffffffffffffffffffffff167f23b872dd00000000000000000000000000000000000000000000000000000000178152925182516000948594938a169392918291908083835b6020831061110357805182527fffffffffffffffffffffffffffffffffffffffffffffffffffffffffffffffe090920191602091820191016110c6565b6001836020036101000a0380198251168184511680821785525050505050509050019150506000604051808303816000865af19150503d8060008114611165576040519150601f19603f3d011682016040523d82523d6000602084013e61116a565b606091505b5091509150818015611198575080511580611198575080806020019051602081101561119557600080fd5b50515b61120357604080517f08c379a000000000000000000000000000000000000000000000000000000000815260206004820152600360248201527f5354460000000000000000000000000000000000000000000000000000000000604482015290519081900360640190fd5b505050505050565b604080516060810182526000808252602082018190529181019190915290565b803573ffffffffffffffffffffffffffffffffffffffff8116811461124f57600080fd5b919050565b803562ffffff8116811461124f57600080fd5b60008060008060008060c0878903121561127f578182fd5b6112888761122b565b95506112966020880161122b565b94506112a460408801611254565b935060608701356112b4816116a2565b925060808701356112c481611690565b915060a08701356112d481611690565b809150509295509295509295565b6000806000606084860312156112f6578283fd5b6112ff8461122b565b9250602084013591506113146040850161122b565b90509250925092565b60006020828403121561132e578081fd5b815161133981611690565b9392505050565b60008183036080811215611352578182fd5b6040516040810167ffffffffffffffff828210818311171561137057fe5b816040526060841215611381578485fd5b60a083019350818410818511171561139557fe5b50826040526113a38561122b565b81526113b16020860161122b565b60608301526113c260408601611254565b608083015281526113d56060850161122b565b6020820152949350505050565b600080604083850312156113f4578182fd5b82516113ff816116a2565b6020840151909250611410816116a2565b809150509250929050565b6000806040838503121561142d578182fd5b8235915061143d6020840161122b565b90509250929050565b60008060408385031215611458578182fd5b505080516020909101519092909150565b6000806000806060858703121561147e578384fd5b8435935060208501359250604085013567ffffffffffffffff808211156114a3578384fd5b818701915087601f8301126114b6578384fd5b8135818111156114c4578485fd5b8860208285010111156114d5578485fd5b95989497505060200194505050565b73ffffffffffffffffffffffffffffffffffffffff91909116815260200190565b600073ffffffffffffffffffffffffffffffffffffffff8716825260208660020b818401528560020b60408401526fffffffffffffffffffffffffffffffff8516606084015260a0608084015283518060a0850152825b818110156115785785810183015185820160c00152820161155c565b81811115611589578360c083870101525b50601f017fffffffffffffffffffffffffffffffffffffffffffffffffffffffffffffffe0169290920160c001979650505050505050565b73ffffffffffffffffffffffffffffffffffffffff959095168552600293840b60208601529190920b60408401526fffffffffffffffffffffffffffffffff918216606084015216608082015260a00190565b600293840b81529190920b60208201526fffffffffffffffffffffffffffffffff909116604082015260600190565b8151805173ffffffffffffffffffffffffffffffffffffffff908116835260208083015182168185015260409283015162ffffff1692840192909252920151909116606082015260800190565b8060020b811461169f57600080fd5b50565b6fffffffffffffffffffffffffffffffff8116811461169f57600080fdfea164736f6c6343000706000a",
  "linkReferences": {},
  "deployedLinkReferences": {}
}